{
  "contractName": "ShippingStatus",
  "abi": [
    {
      "inputs": [],
      "stateMutability": "nonpayable",
      "type": "constructor"
    },
    {
      "anonymous": false,
      "inputs": [
        {
          "indexed": false,
          "internalType": "string",
          "name": "description",
          "type": "string"
        }
      ],
      "name": "LogNewAlert",
      "type": "event"
    },
    {
      "inputs": [],
      "name": "Shipped",
      "outputs": [],
      "stateMutability": "nonpayable",
      "type": "function"
    },
    {
      "inputs": [],
      "name": "Delivered",
      "outputs": [],
      "stateMutability": "nonpayable",
      "type": "function"
    },
    {
      "inputs": [],
      "name": "Status",
      "outputs": [
        {
          "internalType": "string",
          "name": "",
          "type": "string"
        }
      ],
      "stateMutability": "view",
      "type": "function",
      "constant": true
    }
  ],
  "bytecode": "0x608060405234801561001057600080fd5b5060008060006101000a81548160ff0219169083600281111561002f57fe5b021790555061036c806100436000396000f3fe608060405234801561001057600080fd5b50600436106100415760003560e01c806345f09ce914610046578063779822f7146100c95780637e59301e146100d3575b600080fd5b61004e6100dd565b6040518080602001828103825283818151815260200191508051906020019080838360005b8381101561008e578082015181840152602081019050610073565b50505050905090810190601f1680156100bb5780820380516001836020036101000a031916815260200191505b509250505060405180910390f35b6100d1610101565b005b6100db61018e565b005b606060008060009054906101000a900460ff1690506100fb8161021b565b91505090565b60026000806101000a81548160ff0219169083600281111561011f57fe5b02179055507fca75c80642b93c980135b8355995abae3ab06033dc81f956b3824323b4903ef56040518080602001828103825260188152602001807f596f7572207061636b616765206861732061727269766564000000000000000081525060200191505060405180910390a1565b60016000806101000a81548160ff021916908360028111156101ac57fe5b02179055507fca75c80642b93c980135b8355995abae3ab06033dc81f956b3824323b4903ef560405180806020018281038252601d8152602001807f596f7572207061636b61676520686173206265656e207368697070656400000081525060200191505060405180910390a1565b606081600281111561022957fe5b6000600281111561023657fe5b1415610279576040518060400160405280600781526020017f50656e64696e67000000000000000000000000000000000000000000000000008152509050610331565b81600281111561028557fe5b6001600281111561029257fe5b14156102d5576040518060400160405280600781526020017f53686970706564000000000000000000000000000000000000000000000000008152509050610331565b8160028111156102e157fe5b6002808111156102ed57fe5b1415610330576040518060400160405280600981526020017f44656c69766572656400000000000000000000000000000000000000000000008152509050610331565b5b91905056fea2646970667358221220e3ee53586530b0c51f1d6fc607ee65cc06f35028e37e41d79e3d37f0ed3062c264736f6c63430007000033",
  "immutableReferences": {},
  "source": "pragma solidity >=0.5.12 <=0.8.0;\r\n\r\ncontract ShippingStatus\r\n{\r\n    // Our predefined values for shipping listed as enums\r\n    enum ShipStatus { Pending, Shipped, Delivered }\r\n\r\n    // Save enum ShippingStatus in variable status\r\n    ShipStatus private status;\r\n\r\n    // Event to launch when package has arrived\r\n    event LogNewAlert(string description);\r\n\r\n    // This initializes our contract state (sets enum to Pending once the program starts)\r\n    constructor()  {\r\n        status = ShipStatus.Pending;\r\n    }\r\n    // Function to change to Shipped\r\n    function Shipped() public {\r\n        status = ShipStatus.Shipped;\r\n        emit LogNewAlert(\"Your package has been shipped\");\r\n    }\r\n\r\n    // Function to change to Delivered\r\n    function Delivered() public {\r\n        status = ShipStatus.Delivered;\r\n        emit LogNewAlert(\"Your package has arrived\");\r\n    }\r\n\r\n    // Function to get the status of the shipping\r\n    function getStatus(ShipStatus _status) internal pure returns (string memory) {\r\n     // Check the current status and return the correct name\r\n     if (ShipStatus.Pending == _status) return \"Pending\";\r\n     if (ShipStatus.Shipped == _status) return \"Shipped\";\r\n     if (ShipStatus.Delivered == _status) return \"Delivered\";\r\n    }\r\n\r\n   // Get status of your shipped item\r\n    function Status() public view returns (string memory) {\r\n         ShipStatus _status = status;\r\n         return getStatus(_status);\r\n    }\r\n\r\n}",
  "sourcePath": "d:/Code/Blockchain/Azure Train/contracts/ShippingStatus.sol",
  "compiler": {
    "name": "solc",
    "version": "0.7.0+commit.9e61f92b.Emscripten.clang"
  },
  "schemaVersion": "3.3.3",
  "updatedAt": "2020-12-24T21:39:28.878Z",
  "networkType": "ethereum",
  "devdoc": {
    "kind": "dev",
    "methods": {},
    "version": 1
  },
  "userdoc": {
    "kind": "user",
    "methods": {},
    "version": 1
  }
}